:020000040800F2
:1000000000000120B5410008191000082710000861
:100010002D100008331000083910000800000000FF
:100020000000000000000000000000003F10000879
:100030004D100008000000005B1000086910000867
:100040000542000805420008054200080542000874
:100050000542000805420008054200080542000864
:100060000542000805420008054200080542000854
:100070000542000805420008054200080542000844
:100080000542000805420008054200080542000834
:100090000542000805420008054200080542000824
:1000A00005420008054200080542000875100008D6
:1000B0000542000805420008054200080542000804
:1000C00005420008054200080542000805420008F4
:1000D00005420008054200080542000805420008E4
:1000E00005420008054200080542000805420008D4
:1000F00005420008054200080542000805420008C4
:100100000542000800000000000000000542000851
:1001100005420008054200080542000805420008A3
:100120000542000805420008054200080542000893
:100130000542000805420008000000000000000021
:1001400005420008054200080542000800000000C2
:10015000000000000000000000000000000000009F
:100160000542000805420008054200080542000853
:100170000542000805420008054200080542000843
:1001800005420008054200080000000000000000D1
:04019000054200081C
:1001A00010B5054C237833B9044B13B10448AFF3B1
:1001B00000800123237010BD7000002000000000AB
:1001C000A84A000808B5034B1BB103490348AFF325
:1001D000008008BD0000000074000020A84A00084C
:1001E000034613F8012B002AFBD1181A0138704777
:1001F00001F0FF01102A2BDB10F0070F08D010F8D8
:10020000013B013A8B422DD010F0070F42B3F6D1DB
:10021000F0B441EA012141EA014122F007047FF0F4
:1002200000070023F0E80256083C85EA010586EA4B
:10023000010685FA47F5A3FA87F586FA47F6A5FA87
:1002400087F68EB9EED1F0BC01F0FF0102F0070293
:1002500032B110F8013B013A83EA010313B1F8D13E
:100260000020704701387047002D06BF354603381F
:10027000073815F0010F07D1013015F4807F02BF58
:10028000013015F4C03F0130F0BC0138704700BFA9
:1002900081F0004102E000BF83F0004330B54FEA37
:1002A00041044FEA430594EA050F08BF90EA020FA4
:1002B0001FBF54EA000C55EA020C7FEA645C7FEA37
:1002C000655C00F0E2804FEA5454D4EB5555B8BF5A
:1002D0006D420CDD2C4480EA020281EA030382EACB
:1002E000000083EA010180EA020281EA0303362D5D
:1002F00088BF30BD11F0004F4FEA01314FF4801C30
:100300004CEA113102D0404261EB410113F0004F41
:100310004FEA03334CEA133302D0524263EB4303F8
:1003200094EA050F00F0A780A4F10104D5F1200E96
:100330000DDB02FA0EFC22FA05F2801841F10001F1
:1003400003FA0EF2801843FA05F359410EE0A5F1C5
:1003500020050EF1200E012A03FA0EFC28BF4CF0F6
:10036000020C43FA05F3C01851EBE37101F00045AC
:1003700007D54FF0000EDCF1000C7EEB00006EEBB9
:100380000101B1F5801F1BD3B1F5001F0CD3490843
:100390005FEA30004FEA3C0C04F101044FEA44529A
:1003A00012F5800F80F09A80BCF1004F08BF5FEA21
:1003B000500C50F1000041EB045141EA050130BD01
:1003C0005FEA4C0C404141EB010111F4801FA4F1A4
:1003D0000104E9D191F0000F04BF01460020B1FAF9
:1003E00081F308BF2033A3F10B03B3F120020CDA31
:1003F0000C3208DD02F1140CC2F10C0201FA0CF00F
:1004000021FA02F10CE002F11402D8BFC2F1200C73
:1004100001FA02F120FA0CFCDCBF41EA0C01904029
:10042000E41AA2BF01EB0451294330BD6FEA040472
:100430001F3C1CDA0C340EDC04F11404C4F120025D
:1004400020FA04F001FA02F340EA030021FA04F36F
:1004500045EA030130BDC4F10C04C4F1200220FAC6
:1004600002F001FA04F340EA0300294630BD21FA04
:1004700004F0294630BD94F0000F83F4801306BFCA
:1004800081F480110134013D4EE77FEA645C18BFBE
:100490007FEA655C29D094EA050F08BF90EA020F55
:1004A00005D054EA000C04BF1946104630BD91EA4D
:1004B000030F1EBF0021002030BD5FEA545C05D150
:1004C0004000494128BF41F0004130BD14F580048F
:1004D0003CBF01F5801130BD01F0004545F0FE4103
:1004E00041F470014FF0000030BD7FEA645C1ABF38
:1004F000194610467FEA655C1CBF0B46024650EA6F
:10050000013406BF52EA033591EA030F41F400219A
:1005100030BD00BF90F0000F04BF0021704730B520
:100520004FF4806404F132044FF000054FF00001F5
:1005300050E700BF90F0000F04BF0021704730B5B6
:100540004FF4806404F1320410F0004548BF40428B
:100550004FF000013EE700BF42004FEAE2014FEAE0
:1005600031014FEA02701FBF12F07F4393F07F4FBB
:1005700081F06051704792F0000F14BF93F07F4FED
:10058000704730B54FF4607401F0004521F0004130
:1005900020E700BF50EA010208BF704730B54FF0B6
:1005A00000050AE050EA010208BF704730B511F0BB
:1005B000004502D5404261EB41014FF4806404F1F3
:1005C00032045FEA915C3FF4DCAE4FF003025FEA75
:1005D000DC0C18BF03325FEADC0C18BF033202EBFD
:1005E000DC02C2F1200300FA03FC20FA02F001FA57
:1005F00003FE40EA0E0021FA02F11444C1E600BFF6
:1006000070B54FF0FF0C4CF4E06C1CEA11541DBFA8
:100610001CEA135594EA0C0F95EA0C0F00F0DEF873
:100620002C4481EA030621EA4C5123EA4C5350EA58
:10063000013518BF52EA033541F4801143F48013A9
:1006400038D0A0FB02CE4FF00005E1FB02E506F03A
:100650000042E0FB03E54FF00006E1FB03569CF08F
:10066000000F18BF4EF0010EA4F1FF04B6F5007F95
:1006700064F5407404D25FEA4E0E6D4146EB060607
:1006800042EAC62141EA55514FEAC52040EA5E5090
:100690004FEACE2EB4F1FD0C88BFBCF5E06F1ED83A
:1006A000BEF1004F08BF5FEA500E50F1000041EB71
:1006B000045170BD06F0004646EA010140EA02001E
:1006C00081EA0301B4EB5C04C2BFD4EB0C0541EA40
:1006D000045170BD41F480114FF0000E013C00F355
:1006E000AB8014F1360FDEBF002001F0004170BD79
:1006F000C4F10004203C35DA0C341BDC04F1140492
:10070000C4F1200500FA05F320FA04F001FA05F21D
:1007100040EA020001F0004221F0004110EBD370EA
:1007200021FA04F642EB06015EEA430E08BF20EA16
:10073000D37070BDC4F10C04C4F1200500FA04F3B9
:1007400020FA05F001FA04F240EA020001F000414B
:1007500010EBD37041F100015EEA430E08BF20EABE
:10076000D37070BDC4F1200500FA05F24EEA020E06
:1007700020FA04F301FA05F243EA020321FA04F035
:1007800001F0004121FA04F220EA020000EBD370EC
:100790005EEA430E08BF20EAD37070BD94F0000FEC
:1007A0000FD101F00046400041EB010111F4801F20
:1007B00008BF013CF7D041EA060195F0000F18BFD1
:1007C000704703F00046520043EB030313F4801F0D
:1007D00008BF013DF7D043EA0603704794EA0C0FC7
:1007E0000CEA135518BF95EA0C0F0CD050EA4106DD
:1007F00018BF52EA4306D1D181EA030101F000415A
:100800004FF0000070BD50EA410606BF1046194681
:1008100052EA430619D094EA0C0F02D150EA01368D
:1008200013D195EA0C0F05D152EA03361CBF1046CE
:1008300019460AD181EA030101F0004141F0FE416D
:1008400041F470014FF0000070BD41F0FE4141F4F1
:10085000780170BD70B54FF0FF0C4CF4E06C1CEAF1
:1008600011541DBF1CEA135594EA0C0F95EA0C0FA6
:1008700000F0A7F8A4EB050481EA030E52EA033561
:100880004FEA013100F088804FEA03334FF0805582
:1008900045EA131343EA12634FEA022245EA1115AF
:1008A00045EA10654FEA00260EF000419D4208BF60
:1008B000964244F1FD0404F5407402D25B084FEA0D
:1008C0003202B61A65EB03055B084FEA32024FF4B9
:1008D00080104FF4002CB6EB020E75EB030E22BF16
:1008E000B61A754640EA0C005B084FEA3202B6EBD6
:1008F000020E75EB030E22BFB61A754640EA5C0085
:100900005B084FEA3202B6EB020E75EB030E22BF14
:10091000B61A754640EA9C005B084FEA3202B6EB15
:10092000020E75EB030E22BFB61A754640EADC00D4
:1009300055EA060E18D04FEA051545EA16754FEA36
:1009400006164FEAC30343EA52734FEAC2025FEA54
:100950001C1CC0D111F4801F0BD141EA00014FF0E3
:1009600000004FF0004CB6E711F4801F04BF0143B4
:100970000020B4F1FD0C88BFBCF5E06F3FF6AFAED0
:10098000B5EB030C04BFB6EB020C5FEA500C50F160
:10099000000041EB045170BD0EF0004E4EEA1131E3
:1009A00014EB5C04C2BFD4EB0C0541EA045170BDEA
:1009B00041F480114FF0000E013C90E645EA060E2E
:1009C0008DE60CEA135594EA0C0F08BF95EA0C0F5C
:1009D0003FF43BAF94EA0C0F0AD150EA01347FF4A4
:1009E00034AF95EA0C0F7FF425AF104619462CE77B
:1009F00095EA0C0F06D152EA03353FF4FDAE1046DE
:100A0000194622E750EA410618BF52EA43067FF42E
:100A1000C5AE50EA41047FF40DAF52EA43057FF4BE
:100A2000EBAE12E74A0011D212F5001211D20DD529
:100A30006FF47873B3EB62520ED44FEAC12343F0E4
:100A4000004343EA505323FA02F070474FF000008E
:100A5000704750EA013002D14FF0FF3070474FF03D
:100A60000000704780B483B000AF0346FB80084BA2
:100A70001B6800225A6200BF054B1B685A6AFB883C
:100A80009A42F9D300BF0C37BD465DF8047B70472E
:100A90000C0100200000000090B583B000AF78602A
:100AA0007B681B7F012B6BD1394B1B78002B1AD134
:100AB0000021786802F022FC0246364B1A60344B63
:100AC00001221A707B681B687A681268126A22F029
:100AD0000A021A627B681B687A681268126A42F01E
:100AE00002021A624CE02A4B1B78012B48D10021EC
:100AF000786802F003FC0246274B1A607B681B688B
:100B000000225A62244B1A68224B1B68D31A234ACC
:100B10001360224B1B681846FFF7FCFC1AA3D3E9AD
:100B20000023FFF76DFD03460C46184621464FF0A3
:100B300000024FF08043FFF78DFE03460C46184637
:100B40002146FFF76FFF0346DAB2154B1A70104BC0
:100B500000221A707B681B687A681268126A22F099
:100B60000A021A627B681B687A681268126A1A6243
:100B70000C4B1B680B4A1268D26822F00202DA6042
:100B800000BF0C37BD4690BD9CC420B07268A13F29
:100B9000980000208C00002090000020940000208D
:100BA000990000200C01002080B500AF01224FF415
:100BB00080714FF0904000F0CBFD0A20FFF752FF0C
:100BC00000224FF480714FF0904000F0C1FD054BC2
:100BD0001B68044A1268D26842F00202DA6000BF61
:100BE00080BD00BF0C01002080B500AF00F08EFA80
:100BF00000F02CF800F016F900F08AF800F0E2F8A6
:100C000000210D4802F050F9FFF7CEFF0B4B1B7887
:100C10001A460B490B4803F029FB0A48FFF7E0FA94
:100C200003469AB264230749074802F0B3FE4FF423
:100C30007A7000F0D1FAE7E70C010020990000205B
:100C4000C04A0008A80000204C01002080B5A6B0D2
:100C500000AF07F1700328220021184603F0FEFAC6
:100C600007F15C0300221A605A609A60DA601A6128
:100C70003B1D58220021184603F0F0FA02233B677F
:100C80000123FB671023C7F880300223C7F88830A0
:100C90004FF40043C7F88C304FF4E013C7F890309E
:100CA0000023C7F8943007F17003184600F068FD80
:100CB0000346002B01D000F0F5F80F23FB6502235B
:100CC0003B6600237B664FF48063BB660023FB66B4
:100CD00007F15C030221184601F068FC0346002B73
:100CE00001D000F0DFF841F202037B6000233B619A
:100CF0000023BB633B1D184601F08EFE0346002B0C
:100D000001D000F0CFF800BF9837BD4680BD00008D
:100D100080B588B000AF07F1140300221A605A6052
:100D20009A603B1D00221A605A609A60DA60234B79
:100D3000234A1A60214B47225A60204B00229A60B6
:100D40001E4B4FF6FF72DA601C4B00221A611B4BE0
:100D500000225A61194B00229A61184802F078F873
:100D60000346002B01D000F09DF800237B61002397
:100D7000BB610023FB6107F1140319460F4802F021
:100D800011FD0346002B01D000F08CF800237B609E
:100D90000123BB600023FB6000233B613B1D00225D
:100DA0001946064802F00DFA0346002B01D000F068
:100DB00079F800BF2037BD4680BD00BF0C01002080
:100DC000002C014080B500AF144B154A1A60134B3C
:100DD0004FF416425A60114B00229A600F4B0022CA
:100DE000DA600E4B00221A610C4B0C225A610B4B3D
:100DF00000229A61094B0022DA61084B00221A6234
:100E0000064B00225A62054802F076FD0346002B8D
:100E100001D000F047F800BF80BD00BF4C010020AA
:100E20000044004080B588B000AF07F10C030022F9
:100E30001A605A609A60DA601A61194A184B5B6945
:100E400043F400235361164B5B6903F40023BB603A
:100E5000BB68134A124B5B6943F400335361104B78
:100E60005B6903F400337B607B6800224FF4907170
:100E70004FF0904000F06CFC4FF49073FB60012346
:100E80003B6100237B610023BB6107F10C03194622
:100E90004FF0904000F0D2FA00BF2037BD4680BD31
:100EA0000010024080B400AF00BFBD465DF8047B77
:100EB0007047000080B582B000AF0F4A0E4B9B69AF
:100EC00043F0010393610C4B9B6903F001037B60CA
:100ED0007B68094A084BDB6943F08053D361064BBA
:100EE000DB6903F080533B603B68072000F064FA45
:100EF00000BF0837BD4680BD0010024080B58AB0F3
:100F000000AF786007F1140300221A605A609A60FB
:100F1000DA601A617B681B681B4A93422FD11B4A17
:100F20001A4B9B6943F400639361184B9B6903F46C
:100F300000633B613B69154A144B5B6943F4002332
:100F40005361124B5B6903F40023FB60FB680123D0
:100F50007B610223BB610023FB6100233B62022310
:100F60007B6207F114031946094800F067FA002272
:100F700000211B2000F02BFA1B2000F044FA00BFD8
:100F80002837BD4680BD00BF002C01400010024044
:100F90000008004880B58AB000AF786007F11403FC
:100FA00000221A605A609A60DA601A617B681B68D6
:100FB000174A934228D1174A164BDB6943F4003392
:100FC000D361144BDB6903F400333B613B69114A85
:100FD000104B5B6943F4003353610E4B5B6903F4C0
:100FE0000033FB60FB680C237B610223BB610023A1
:100FF000FB6103233B6207237B6207F1140319465D
:101000004FF0904000F01AFA00BF2837BD4680BD6F
:10101000004400400010024080B400AF00BFBD4655
:101020005DF8047B704780B400AFFEE780B400AF8A
:10103000FEE780B400AFFEE780B400AFFEE780B407
:1010400000AF00BFBD465DF8047B704780B400AFC1
:1010500000BFBD465DF8047B704780B400AF00BFA1
:10106000BD465DF8047B704780B500AF00F094F892
:1010700000BF80BD80B500AF024801F083FF00BF14
:1010800080BD00BF0C01002080B584B000AF786047
:10109000114B1B68002B02D10F4B104A1A600E4BEC
:1010A0001B68FB600C4B1A687B6813446A469342CA
:1010B00007D903F0A9F802460C2313604FF0FF3361
:1010C00006E0054B1A687B681344034A1360FB680B
:1010D00018461037BD4680BD9C000020D40100207A
:1010E00080B400AF084A084BD3F8883043F470034B
:1010F000C2F88830044B4FF000629A6000BFBD46D2
:101100005DF8047B704700BF00ED00E080B500AFE4
:10111000084A084B1B6843F010031360032000F0DB
:101120004BF9002000F008F8FFF7C4FE0023184632
:1011300080BD00BF0020024080B582B000AF786063
:10114000124B1A68124B1B7819464FF47A73B3FB93
:10115000F1F3B2FBF3F3184600F063F90346002BFA
:1011600001D001230EE07B680F2B0AD8002279689A
:101170004FF0FF3000F02BF9064A7B681360002324
:1011800000E0012318460837BD4680BD000000205E
:10119000080000200400002080B400AF064B1B783C
:1011A0001A46064B1B681344044A136000BFBD4631
:1011B0005DF8047B704700BF08000020CC010020D0
:1011C00080B400AF034B1B681846BD465DF8047B36
:1011D000704700BFCC01002080B584B000AF7860BC
:1011E000FFF7EEFFB8607B68FB60FB68B3F1FF3F81
:1011F00005D0094B1B781A46FB681344FB6000BFFF
:10120000FFF7DEFF0246BB68D21AFB689A42F7D3AB
:1012100000BF1037BD4680BD0800002080B485B0F7
:1012200000AF78607B6803F00703FB600C4BDB6862
:10123000BB60BA684FF6FF031340BB60FB681A023D
:10124000BB68134343F0BF6343F40033BB60044AFD
:10125000BB68D36000BF1437BD465DF8047B7047A0
:1012600000ED00E080B400AF044BDB681B0A03F024
:1012700007031846BD465DF8047B704700ED00E0AB
:1012800080B483B000AF0346FB7197F90730002BA1
:101290000BDB094997F907305B09FA7902F01F0265
:1012A000012000FA02F241F8232000BF0C37BD46AE
:1012B0005DF8047B704700BF00E100E080B483B0BC
:1012C00000AF03463960FB7197F90730002B0ADB4A
:1012D0000D4997F907303A68D2B21201D2B20B44E5
:1012E00083F800230AE00949FB7903F00F03043B6C
:1012F0003A68D2B21201D2B20B441A7600BF0C3750
:10130000BD465DF8047B704700E100E000ED00E0C1
:1013100080B489B000AFF860B9607A60FB6803F010
:101320000703FB61FB69C3F10703042B28BF0423F8
:10133000BB61FB690433062B02D9FB69033B00E068
:1013400000237B610122BB6902FA03F35A1EBB68CA
:101350001A407B699A4001217B6901FA03F3591E07
:101360007B680B40134318462437BD465DF8047B69
:101370007047000080B582B000AF78607B68013BA9
:10138000B3F1807F01D301230FE00A4A7B68013B60
:1013900053600F214FF0FF30FFF790FF054B002205
:1013A0009A60044B07221A60002318460837BD468E
:1013B00080BD00BF10E000E080B582B000AF786073
:1013C0007868FFF72BFF00BF0837BD4680BD80B5AA
:1013D00086B000AF0346B9607A60FB7300237B617F
:1013E000FFF740FF78617A68B9687869FFF790FF86
:1013F000024697F90F3011461846FFF75FFF00BF0E
:101400001837BD4680BD80B582B000AF0346FB7182
:1014100097F907301846FFF733FF00BF0837BD467E
:1014200080BD80B582B000AF78607868FFF7A2FF1A
:10143000034618460837BD4680BD000080B487B01B
:1014400000AF7860396000237B6160E13B681A6817
:1014500001217B6901FA03F31340FB60FB68002B59
:1014600000F052813B685B68012B0BD03B685B68E6
:10147000022B07D03B685B68112B03D03B685B688D
:10148000122B30D17B689B683B617B695B00032238
:1014900002FA03F3DB433A6913403B613B68DA68C5
:1014A0007B695B0002FA03F33A6913433B617B6893
:1014B0003A699A607B685B683B6101227B6902FA4A
:1014C00003F3DB433A6913403B613B685B681B09EC
:1014D00003F001027B6902FA03F33A6913433B61AB
:1014E0007B683A695A607B68DB683B617B695B00BB
:1014F000032202FA03F3DB433A6913403B613B6882
:101500009A687B695B0002FA03F33A6913433B6113
:101510007B683A69DA603B685B68022B03D03B6802
:101520005B68122B23D17B69DA087B68083253F899
:1015300022303B617B6903F007039B000F2202FA14
:1015400003F3DB433A6913403B613B681A697B69EB
:1015500003F007039B0002FA03F33A6913433B616C
:101560007B69DA087B680832396943F822107B68A6
:101570001B683B617B695B00032202FA03F3DB43D8
:101580003A6913403B613B685B6803F003027B6987
:101590005B0002FA03F33A6913433B617B683A69E3
:1015A0001A603B685B6803F08053002B00F0AC804E
:1015B0005E4A5E4B9B6943F0010393615B4B9B6901
:1015C00003F00103BB60BB68594A7B699B08023387
:1015D00052F823303B617B6903F003039B000F2229
:1015E00002FA03F3DB433A6913403B617B68B3F1D2
:1015F000904F25D07B684F4A93421FD07B684E4A5C
:10160000934219D07B684D4A934213D07B684C4A71
:1016100093420DD07B684B4A934207D07B684A4A7D
:10162000934201D106230CE007230AE0052308E0DA
:10163000042306E0032304E0022302E0012300E088
:1016400000237A6902F00302920093403A6913433F
:101650003B6137497B699B0802333A6941F8232093
:101660003A4B1B683B61FB68DB433A6913403B61C3
:101670003B685B6803F48033002B03D03A69FB6856
:1016800013433B61314A3B691360304B5B683B61FC
:10169000FB68DB433A6913403B613B685B6803F4DA
:1016A0000033002B03D03A69FB6813433B61274AA0
:1016B0003B695360254B9B683B61FB68DB433A69A0
:1016C00013403B613B685B6803F48013002B03D03D
:1016D0003A69FB6813433B611C4A3B6993601B4BAF
:1016E000DB683B61FB68DB433A6913403B613B6865
:1016F0005B6803F40013002B03D03A69FB681343C3
:101700003B61124A3B69D3607B6901337B613B6873
:101710001A687B6922FA03F3002B7FF497AE00BFAF
:101720001C37BD465DF8047B704700BF00100240C7
:10173000000001400004004800080048000C004878
:101740000010004800140048001800480004014040
:1017500080B483B000AF78600B467B8013467B700B
:101760007B78002B03D07A887B689A6102E07A88C4
:101770007B689A6200BF0C37BD465DF8047B7047FA
:1017800080B5ADF5027D00AF3B1D18603B1D1B68A9
:10179000002B02D1012300F001BF3B1D1B681B6819
:1017A00003F00103002B00F06081AE4B5B6803F097
:1017B0000C03042B0CD0AB4B5B6803F00C03082B21
:1017C00059D1A84B5B6803F4C033B3F5803F52D1C5
:1017D0004FF40033C7F8F431D7F8F43193FAA3F398
:1017E000C7F8F031D7F8F031B3FA83F3DBB25B0915
:1017F000DBB243F00103DBB2012B02D1994B1B6832
:1018000015E04FF40033C7F8EC31D7F8EC3193FA18
:10181000A3F3C7F8E8314FF40033C7F8E431D7F841
:10182000E43193FAA3F3C7F8E0318E4B5B6A4FF4CF
:101830000032C7F8DC21D7F8DC2192FAA2F2C7F80F
:10184000D821D7F8D821B2FA82F2D2B242F02002DF
:10185000D2B202F01F02012101FA02F21340002B62
:1018600000F002813B1D1B685B68002B40F0FC8090
:10187000012300F093BE3B1D1B685B68B3F5803FFE
:1018800006D1784A774B1B6843F48033136030E00D
:101890003B1D1B685B68002B0CD1724A714B1B68A7
:1018A00023F4803313606F4A6E4B1B6823F480234C
:1018B00013601EE03B1D1B685B68B3F5A02F0CD1C5
:1018C000684A684B1B6843F480231360654A654B84
:1018D0001B6843F4803313600BE0624A614B1B6862
:1018E00023F4803313605F4A5E4B1B6823F480232C
:1018F00013603B1D1B685B68002B59D0FFF760FC31
:10190000C7F800020AE0FFF75BFC0246D7F8003296
:10191000D31A642B02D9032300F040BE4FF40033E6
:10192000C7F8D431D7F8D43193FAA3F3C7F8D0313C
:10193000D7F8D031B3FA83F3DBB25B09DBB243F003
:101940000103DBB2012B02D1464B1B6815E04FF4BB
:101950000033C7F8CC31D7F8CC3193FAA3F3C7F8EA
:10196000C8314FF40033C7F8C431D7F8C43193FA03
:10197000A3F3C7F8C0313B4B5B6A4FF40032C7F8A2
:10198000BC21D7F8BC2192FAA2F2C7F8B821D7F847
:10199000B821B2FA82F2D2B242F02002D2B202F000
:1019A0001F02012101FA02F21340002BABD05CE0D0
:1019B000FFF706FCC7F800020AE0FFF701FC024649
:1019C000D7F80032D31A642B02D9032300F0E6BD06
:1019D0004FF40033C7F8B431D7F8B43193FAA3F316
:1019E000C7F8B031D7F8B031B3FA83F3DBB25B0993
:1019F000DBB243F00103DBB2012B02D1194B1B68B0
:101A000015E04FF40033C7F8AC31D7F8AC3193FA96
:101A1000A3F3C7F8A8314FF40033C7F8A431D7F8BF
:101A2000A43193FAA3F3C7F8A0310E4B5B6A4FF4CD
:101A30000032C7F89C21D7F89C2192FAA2F2C7F88D
:101A40009821D7F89821B2FA82F2D2B242F020025D
:101A5000D2B202F01F02012101FA02F21340002B60
:101A6000ABD102E00010024000BF3B1D1B681B68A9
:101A700003F00203002B00F07081D04B5B6803F091
:101A80000C03002B0CD0CD4B5B6803F00C03082B30
:101A90006DD1CA4B5B6803F4C033B3F5004F66D118
:101AA0000223C7F89431D7F8943193FAA3F3C7F817
:101AB0009031D7F89031B3FA83F3DBB25B09DBB234
:101AC00043F00103DBB2012B02D1BC4B1B6813E0D6
:101AD0000223C7F88C31D7F88C3193FAA3F3C7F8F7
:101AE00088310223C7F88431D7F8843193FAA3F3FD
:101AF000C7F88031B14B5B6A0222C7F87C21D7F866
:101B00007C2192FAA2F2C7F87821D7F87821B2FAAC
:101B100082F2D2B242F02002D2B202F01F020121C0
:101B200001FA02F21340002B07D03B1D1B68DB6853
:101B3000012B02D0012300F031BDA0489F4B1B6850
:101B400023F0F8023B1D1B681B69F821C7F87411CC
:101B5000D7F8741191FAA1F1C7F87011D7F8701184
:101B6000B1FA81F1C9B28B4013430360F5E03B1D2C
:101B70001B68DB68002B00F085800123C7F86C31FF
:101B8000D7F86C3193FAA3F3C7F86831D7F8683106
:101B9000B3FA83F3DBB203F1845303F584139B00A0
:101BA0001A4601231360FFF70BFBC7F800020AE097
:101BB000FFF706FB0246D7F80032D31A022B02D9F0
:101BC000032300F0EBBC0223C7F86431D7F864317B
:101BD00093FAA3F3C7F86031D7F86031B3FA83F30F
:101BE000DBB25B09DBB243F00103DBB2012B02D1B4
:101BF000724B1B6813E00223C7F85C31D7F85C31E5
:101C000093FAA3F3C7F858310223C7F85431D7F831
:101C1000543193FAA3F3C7F85031684B5B6A022240
:101C2000C7F84C21D7F84C2192FAA2F2C7F8482104
:101C3000D7F84821B2FA82F2D2B242F02002D2B2F0
:101C400002F01F02012101FA02F21340002BAFD073
:101C50005A485A4B1B6823F0F8023B1D1B681B694E
:101C6000F821C7F84411D7F8441191FAA1F1C7F847
:101C70004011D7F84011B1FA81F1C9B28B4013433A
:101C800003606AE00123C7F83C31D7F83C3193FA8E
:101C9000A3F3C7F83831D7F83831B3FA83F3DBB29E
:101CA00003F1845303F584139B001A460023136049
:101CB000FFF786FAC7F800020AE0FFF781FA02464A
:101CC000D7F80032D31A022B02D9032300F066BCE6
:101CD0000223C7F83431D7F8343193FAA3F3C7F8A5
:101CE0003031D7F83031B3FA83F3DBB25B09DBB2C2
:101CF00043F00103DBB2012B02D1304B1B6813E030
:101D00000223C7F82C31D7F82C3193FAA3F3C7F884
:101D100028310223C7F82431D7F8243193FAA3F3EA
:101D2000C7F82031254B5B6A0222C7F81C21D7F87F
:101D30001C2192FAA2F2C7F81821D7F81821B2FA9A
:101D400082F2D2B242F02002D2B202F01F0201218E
:101D500001FA02F21340002BAFD13B1D1B681B6838
:101D600003F00803002B00F0DA803B1D1B685B6961
:101D7000002B69D00123C7F81431D7F8143193FA36
:101D8000A3F3C7F81031D7F81031B3FA83F3DBB2FD
:101D90001A460B4B13449B001A4601231360FFF7AE
:101DA0000FFAC7F800020DE0FFF70AFA0246D7F86B
:101DB0000032D31A022B05D90323EFE300100240AF
:101DC000208190100223C7F80C31D7F80C3193FA18
:101DD000A3F207F584731A6007F5827302221A6072
:101DE00007F582731B6893FAA3F207F580731A60F4
:101DF00007F1FC0302221A6007F1FC031B6893FA47
:101E0000A3F207F1F8031A60A44B5A6A07F1F4032E
:101E10000221196007F1F4031B6893FAA3F107F19B
:101E2000F003196007F1F0031B68B3FA83F3DBB228
:101E300043F06003DBB203F01F03012101FA03F357
:101E40001340002BB0D06AE007F1EC0301221A60C6
:101E500007F1EC031B6893FAA3F207F1E8031A6099
:101E600007F1E8031B68B3FA83F3DBB21A468C4B25
:101E700013449B001A4600231360FFF7A1F9C7F82B
:101E8000000209E0FFF79CF90246D7F80032D31AA6
:101E9000022B01D9032381E307F1E40302221A6034
:101EA00007F1E4031B6893FAA3F207F1E0031A6059
:101EB00007F1DC0302221A6007F1DC031B6893FAC6
:101EC000A3F207F1D8031A6007F1D40302221A60C3
:101ED00007F1D4031B6893FAA3F207F1D0031A6049
:101EE0006E4B5A6A07F1CC030221196007F1CC034B
:101EF0001B6893FAA3F107F1C803196007F1C8033F
:101F00001B68B3FA83F3DBB243F06003DBB203F088
:101F10001F03012101FA03F31340002BB2D13B1D33
:101F20001B681B6803F00403002B00F0578100239B
:101F300087F80732594BDB6903F08053002B12D12D
:101F4000564A564BDB6943F08053D361534BDB69F0
:101F500003F0805207F10C031A6007F10C031B68B1
:101F6000012387F807324F4B1B6803F48073002B63
:101F70001AD14C4A4B4B1B6843F480731360FFF734
:101F80001FF9C7F8000209E0FFF71AF90246D7F86F
:101F90000032D31A642B01D90323FFE2414B1B68A3
:101FA00003F48073002BEFD03B1D1B689B68012B53
:101FB00006D13A4A394B1B6A43F0010313622FE002
:101FC0003B1D1B689B68002B0CD1344A334B1B6AAA
:101FD00023F001031362314A304B1B6A23F00403E0
:101FE00013621DE03B1D1B689B68052B0CD12B4A1F
:101FF0002A4B1B6A43F004031362284A274B1B6ACF
:1020000043F0010313620BE0244A244B1B6A23F0C4
:1020100001031362214A214B1B6A23F0040313625C
:102020003B1D1B689B68002B6AD0FFF7C9F8C7F8F7
:1020300000020BE0FFF7C4F80246D7F80032D31ACB
:1020400041F28832934201D90323A7E207F1C40386
:1020500002221A6007F1C4031B6893FAA3F207F186
:10206000C0031A6007F1BC0302221A6007F1BC0327
:102070001B6893FAA3F207F1B8031A6007F1B803DB
:102080001B68B3FA83F3DBB25B09DBB243F00203F4
:10209000DBB2022B08D1014B1B6A13E00010024097
:1020A000208190100070004007F1B40302221A60F2
:1020B00007F1B4031B6893FAA3F207F1B0031A60A7
:1020C000C04B5B6A07F1AC020221116007F1AC0260
:1020D000126892FAA2F107F1A802116007F1A802B2
:1020E0001268B2FA82F2D2B242F04002D2B202F0E8
:1020F0001F02012101FA02F21340002B9AD063E083
:10210000FFF75EF8C7F800020BE0FFF759F8024648
:10211000D7F80032D31A41F28832934201D903230F
:102120003CE207F1A40302221A6007F1A4031B6832
:1021300093FAA3F207F1A0031A6007F19C030222AD
:102140001A6007F19C031B6893FAA3F207F1980346
:102150001A6007F198031B68B3FA83F3DBB25B09DB
:10216000DBB243F00203DBB2022B02D1954B1B6AB8
:102170000DE007F1940302221A6007F194031B6833
:1021800093FAA3F207F190031A608E4B5B6A07F192
:102190008C020221116007F18C02126892FAA2F1FE
:1021A00007F18802116007F188021268B2FA82F220
:1021B000D2B242F04002D2B202F01F02012101FA73
:1021C00002F21340002BA0D197F80732012B05D162
:1021D0007C4A7C4BDB6923F08053D3613B1D1B6839
:1021E0009B69002B00F0D981764B5B6803F00C03F0
:1021F000082B00F0A6813B1D1B689B69022B40F059
:102200001E8107F184034FF080721A6007F1840386
:102210001B6893FAA3F207F180031A6007F18003A9
:102220001B68B3FA83F3DBB203F1845303F5841321
:102230009B001A4600231360FEF7C2FFC7F8000296
:1022400009E0FEF7BDFF0246D7F80032D31A022B91
:1022500001D90323A2E107F17C034FF000721A6059
:1022600007F17C031B6893FAA3F207F178031A6065
:1022700007F178031B68B3FA83F3DBB25B09DBB2C7
:1022800043F00103DBB2012B02D14E4B1B681BE074
:1022900007F174034FF000721A6007F174031B68B2
:1022A00093FAA3F207F170031A6007F16C034FF081
:1022B00000721A6007F16C031B6893FAA3F207F12E
:1022C00068031A603F4B5B6A07F164024FF00071CC
:1022D000116007F16402126892FAA2F107F160023C
:1022E000116007F160021268B2FA82F2D2B242F0D3
:1022F0002002D2B202F01F02012101FA02F21340C1
:10230000002B9ED12F492F4BDB6A23F00F023B1D80
:102310001B685B6A1343CB622A482A4B5B6823F431
:1023200076123B1D1B68196A3B1D1B68DB690B435A
:102330001343436007F15C034FF080721A6007F1AA
:102340005C031B6893FAA3F207F158031A6007F1C4
:1023500058031B68B3FA83F3DBB203F1845303F52C
:1023600084139B001A4601231360FEF729FFC7F868
:10237000000209E0FEF724FF0246D7F80032D31A24
:10238000022B01D9032309E107F154034FF0007236
:102390001A6007F154031B6893FAA3F207F1500384
:1023A0001A6007F150031B68B3FA83F3DBB25B09D1
:1023B000DBB243F00103DBB2012B05D1014B1B68FB
:1023C0001EE000BF0010024007F14C034FF0007206
:1023D0001A6007F14C031B6893FAA3F207F1480354
:1023E0001A6007F144034FF000721A6007F14403CA
:1023F0001B6893FAA3F207F140031A606A4B5B6A09
:1024000007F13C024FF00071116007F13C021268C5
:1024100092FAA2F107F13802116007F1380212684E
:10242000B2FA82F2D2B242F02002D2B202F01F021D
:10243000012101FA02F21340002B9BD0ADE007F11D
:1024400034034FF080721A6007F134031B6893FA6B
:10245000A3F207F130031A6007F130031B68B3FAE7
:1024600083F3DBB203F1845303F584139B001A4614
:1024700000231360FEF7A4FEC7F8000209E0FEF790
:102480009FFE0246D7F80032D31A022B01D903234C
:1024900084E007F12C034FF000721A6007F12C035F
:1024A0001B6893FAA3F207F128031A6007F12803C7
:1024B0001B68B3FA83F3DBB25B09DBB243F00103C1
:1024C000DBB2012B02D1384B1B681BE007F1240360
:1024D0004FF000721A6007F124031B6893FAA3F20D
:1024E00007F120031A6007F11C034FF000721A6015
:1024F00007F11C031B6893FAA3F207F118031A6093
:10250000294B5B6A07F114024FF00071116007F16B
:102510001402126892FAA2F107F11002116007F199
:1025200010021268B2FA82F2D2B242F02002D2B2A3
:1025300002F01F02012101FA02F21340002B9ED18A
:102540002BE03B1D1B689B69012B01D1012325E07A
:10255000154B5B68C7F8FC31134BDB6AC7F8F831E1
:10256000D7F8FC3103F4C0323B1D1B68DB699A428B
:1025700011D1D7F8FC3103F470123B1D1B681B6AA4
:102580009A4208D1D7F8F83103F00F023B1D1B68BF
:102590005B6A9A4201D0012300E00023184607F548
:1025A0000277BD4680BD00BF0010024080B59EB0DE
:1025B00000AF7860396000237B677B68002B01D116
:1025C000012362E1904B1B6803F007023B689A42CB
:1025D00010D28D498C4B1B6823F007023B681343D4
:1025E0000B60894B1B6803F007023B689A4201D0DD
:1025F00001234AE17B681B6803F00203002B08D02B
:102600008249824B5B6823F0F0027B689B6813432E
:102610004B607B681B6803F00103002B00F0DC803B
:102620007B685B68012B3CD14FF400333B673B6F09
:1026300093FAA3F3FB66FB6EB3FA83F3DBB25B0999
:10264000DBB243F00103DBB2012B02D16F4B1B68FD
:102650000FE04FF40033BB66BB6E93FAA3F37B66C7
:102660004FF400333B663B6E93FAA3F3FB65674B75
:102670005B6A4FF40032BA65BA6D92FAA2F27A65DB
:102680007A6DB2FA82F2D2B242F02002D2B202F0F5
:102690001F02012101FA02F21340002B7BD101231A
:1026A000F3E07B685B68022B3CD14FF000733B6525
:1026B0003B6D93FAA3F3FB64FB6CB3FA83F3DBB2D9
:1026C0005B09DBB243F00103DBB2012B02D14F4BBC
:1026D0001B680FE04FF00073BB64BB6C93FAA3F36D
:1026E0007B644FF000733B643B6C93FAA3F3FB6392
:1026F000464B5B6A4FF00072BA63BA6B92FAA2F271
:102700007A637A6BB2FA82F2D2B242F02002D2B28B
:1027100002F01F02012101FA02F21340002B3AD10C
:102720000123B2E002233B633B6B93FAA3F3FB620A
:10273000FB6AB3FA83F3DBB25B09DBB243F001035C
:10274000DBB2012B02D1314B1B680DE00223BB62CF
:10275000BB6A93FAA3F37B6202233B623B6A93FA60
:10276000A3F3FB61294B5B6A0222BA61BA6992FA50
:10277000A2F27A617A69B2FA82F2D2B242F020020F
:10278000D2B202F01F02012101FA02F21340002B23
:1027900001D1012379E01D491C4B5B6823F0030242
:1027A0007B685B6813434B60FEF70AFD78670AE0BD
:1027B000FEF706FD02467B6FD31A41F28832934240
:1027C00001D9032361E0114B5B6803F00C027B68C5
:1027D0005B689B009A42EBD10B4B1B6803F007022E
:1027E0003B689A4214D90849074B1B6823F007023B
:1027F0003B6813430B60044B1B6803F007023B6804
:102800009A4205D0012340E000200240001002401F
:102810007B681B6803F00403002B08D01D491D4B87
:102820005B6823F4E0627B68DB6813434B607B6882
:102830001B6803F00803002B09D01649154B5B6891
:1028400023F460527B681B69DB0013434B6000F08C
:1028500029F801460F4B5B6803F0F003F0223A6160
:102860003A6992FAA2F2FA60FA68B2FA82F2D2B245
:10287000D340094AD35C21FA03F3084A1360084B9A
:102880001B681846FEF758FC002318467837BD46EB
:1028900080BD00BF00100240D84A000800000020A0
:1028A0000400002080B48BB000AF0023FB61002344
:1028B000BB6100237B6200237B6100233B622A4BC8
:1028C0005B68FB61FB6903F00C03042B02D0082B4F
:1028D00003D03FE0254B3B623FE0FB6903F47013FC
:1028E0004FF47012BA60BA6892FAA2F27A607A680B
:1028F000B2FA82F2D2B2D3401D4AD35C7B611A4B4A
:10290000DB6A03F00F030F223A613A6992FAA2F2EE
:10291000FA60FA68B2FA82F2D2B2D340154AD35CB6
:10292000BB61FB6903F48033002B08D00F4ABB69FD
:10293000B2FBF3F37A6902FB03F37B6207E00B4A15
:10294000BB69B2FBF3F37A6902FB03F37B627B6A38
:102950003B6202E0054B3B6200BF3B6A18462C37E6
:10296000BD465DF8047B70470010024000127A00FB
:10297000F04A0008004B000880B400AF034B1B680E
:102980001846BD465DF8047B704700BF000000207C
:1029900080B582B000AFFFF7EFFF01460B4B5B68DD
:1029A00003F4E0634FF4E0627A607A6892FAA2F28C
:1029B0003A603A68B2FA82F2D2B2D340044AD35CA7
:1029C00021FA03F318460837BD4680BD00100240C7
:1029D000E84A000880B582B000AFFFF7CDFF01469E
:1029E0000B4B5B6803F460534FF460527A607A6873
:1029F00092FAA2F23A603A68B2FA82F2D2B2D340C4
:102A0000044AD35C21FA03F318460837BD4680BD5B
:102A100000100240E84A000880B592B000AF78602C
:102A200000233B640023FB637B681B6803F4803353
:102A3000002B00F0D780002387F847304E4BDB692E
:102A400003F08053002B0ED14B4A4B4BDB6943F014
:102A50008053D361484BDB6903F08053BB60BB6894
:102A6000012387F84730454B1B6803F48073002B24
:102A700018D1424A414B1B6843F480731360FEF740
:102A80009FFB386408E0FEF79BFB02463B6CD31AC1
:102A9000642B01D90323D5E1384B1B6803F4807301
:102AA000002BF0D0344B1B6A03F44073FB63FB6BC9
:102AB000002B00F084807B685B6803F44072FB6B42
:102AC0009A427CD02C4B1B6A23F44073FB634FF477
:102AD00080333B633B6B93FAA3F3FB62FB6AB3FA6D
:102AE00083F3DBB21A46264B13449B001A4601239C
:102AF00013604FF48033BB63BB6B93FAA3F37B6328
:102B00007B6BB3FA83F3DBB21A461D4B13449B0075
:102B10001A4600231360184AFB6B1362FB6B03F029
:102B20000103002B4BD0FEF74BFB38640AE0FEF7A5
:102B300047FB02463B6CD31A41F28832934201D9DB
:102B400003237FE10223BB62BB6A93FAA3F37B6298
:102B500002233B623B6A93FAA3F3FB61FB69B3FA7E
:102B600083F3DBB25B09DBB243F00203DBB2022B7F
:102B700008D1014B1B6A0DE00010024000700040BC
:102B8000008190100223BB61BB6993FAA3F37B61C0
:102B90009F4B5B6A02223A613A6992FAA2F2FA60AA
:102BA000FA68B2FA82F2D2B242F04002D2B202F035
:102BB0001F02012101FA02F21340002BB7D0944901
:102BC000934B1B6A23F440727B685B6813430B6270
:102BD00097F84730012B05D18D4A8D4BDB6923F0E7
:102BE0008053D3617B681B6803F00103002B08D07E
:102BF0008749874B1B6B23F003027B689B68134359
:102C00000B637B681B6803F00203002B08D080492C
:102C10007F4B1B6B23F440327B68DB6813430B63F1
:102C20007B681B6803F00403002B08D07849784BBD
:102C30001B6B23F440227B681B6913430B637B6887
:102C40001B6803F02003002B08D07149704B1B6BED
:102C500023F010027B68DB6913430B637B681B68FE
:102C600003F40033002B08D06949694B5B6823F4F7
:102C700080027B685B6D13434B607B681B6803F0CD
:102C80004003002B08D06249614B1B6B23F02002EC
:102C90007B681B6A13430B637B681B6803F4802308
:102CA000002B08D05A495A4B1B6B23F040027B681B
:102CB0005B6A13430B637B681B6803F00803002BFC
:102CC00008D05349524B1B6B23F440127B685B695D
:102CD00013430B637B681B6803F01003002B08D0C1
:102CE0004B494B4B1B6B23F440027B689B6913439E
:102CF0000B637B681B6803F40073002B08D0444906
:102D0000434B5B6823F400027B681B6B13434B60EF
:102D10007B681B6803F08003002B08D03C493C4BC8
:102D2000DB6A23F4F8727B689B6A1343CB627B688F
:102D30001B6803F48073002B08D03549344BDB6AE1
:102D400023F478527B68DB6A1343CB627B681B6891
:102D500003F48053002B08D02D492D4B1B6B23F41B
:102D600080727B685B6B13430B637B681B6803F4A7
:102D70000053002B08D02649254B1B6B23F400720F
:102D80007B681B6C13430B637B681B6803F4801325
:102D9000002B08D01E491E4B1B6B23F080727B68F2
:102DA0009B6B13430B637B681B6803F40013002BBE
:102DB00008D01749164B1B6B23F000727B68DB6B46
:102DC00013430B637B681B6803F48003002B08D05C
:102DD0000F490F4B1B6B23F480627B685B6C1343C2
:102DE0000B637B681B6803F40003002B08D00849C1
:102DF000074B1B6B23F400627B689B6C13430B63D4
:102E00007B681B6803F08073002B0BD0004901E046
:102E1000001002400D4B1B6B23F400527B68DB6CEF
:102E200013430B637B681B6803F00073002B08D00F
:102E30000649064B1B6B23F400427B681B6D134352
:102E40000B63002318464837BD4680BD0010024082
:102E500080B582B000AF78607B68002B01D1012380
:102E60001DE07B6893F83D30DBB2002B06D17B6818
:102E7000002283F83C207868FEF740F87B68022245
:102E800083F83D207B681A687B6804331946104636
:102E900000F0A0FA7B68012283F83D200023184649
:102EA0000837BD4680BD000080B584B000AF7860B3
:102EB00039603B680C2B41D801A252F823F000BFC7
:102EC000F52E00083D2F00083D2F00083D2F00087B
:102ED000072F00083D2F00083D2F00083D2F000858
:102EE000192F00083D2F00083D2F00083D2F000836
:102EF0002B2F00087B681B687A681268D26842F042
:102F00000202DA601BE07B681B687A681268D2688C
:102F100042F00402DA6012E07B681B687A6812688B
:102F2000D26842F00802DA6009E07B681B687A68C0
:102F30001268D26842F01002DA6000E000BF7B68DD
:102F40001B6801223968184600F006FC7B681B6884
:102F50009A680B4B1340FB60FB68062B0BD0FB6899
:102F6000B3F5803F07D07B681B687A6812681268E7
:102F700042F001021A60002318461037BD4680BD9A
:102F80000700010080B582B000AF78607B681B68E5
:102F90001B6903F00203022B22D17B681B68DB68EC
:102FA00003F00203022B1BD17B681B686FF0020247
:102FB0001A617B6801221A777B681B689B6903F0A2
:102FC0000303002B03D07868FDF766FD05E0786801
:102FD00000F0E2F9786800F0E9F97B6800221A77DE
:102FE0007B681B681B6903F00403042B22D17B68F8
:102FF0001B68DB6803F00403042B1BD17B681B6890
:103000006FF004021A617B6802221A777B681B68E2
:103010009B6903F44073002B03D07868FDF73CFDF7
:1030200005E0786800F0B8F9786800F0BFF97B68CF
:1030300000221A777B681B681B6903F00803082BC2
:1030400022D17B681B68DB6803F00803082B1BD1C7
:103050007B681B686FF008021A617B6804221A778C
:103060007B681B68DB6903F00303002B03D07868DF
:10307000FDF712FD05E0786800F08EF9786800F041
:1030800095F97B6800221A777B681B681B6903F03F
:103090001003102B22D17B681B68DB6803F0100340
:1030A000102B1BD17B681B686FF010021A617B68C4
:1030B00008221A777B681B68DB6903F44073002BD6
:1030C00003D07868FDF7E8FC05E0786800F064F963
:1030D000786800F06BF97B6800221A777B681B68C0
:1030E0001B6903F00103012B0ED17B681B68DB68B1
:1030F00003F00103012B07D17B681B686FF001020D
:103100001A61786800F03EF97B681B681B6903F060
:103110008003802B0ED17B681B68DB6803F0800383
:10312000802B07D17B681B686FF080021A6178687A
:1031300000F0CEFB7B681B681B6903F48073B3F55A
:10314000807F0ED17B681B68DB6803F08003802BD7
:1031500007D17B681B686FF480721A61786800F091
:10316000C1FB7B681B681B6903F04003402B0ED139
:103170007B681B68DB6803F04003402B07D17B684A
:103180001B686FF040021A61786800F019F97B68DB
:103190001B681B6903F02003202B0ED17B681B6882
:1031A000DB6803F02003202B07D17B681B686FF0DE
:1031B00020021A61786800F081FB00BF0837BD4625
:1031C00080BD80B584B000AFF860B9607A60FB68FC
:1031D00093F83C30012B01D102238AE0FB680122E5
:1031E00083F83C20FB68022283F83D207B68002B9B
:1031F0001BD1FB681868BB681968BB685A68BB6854
:10320000DB6800F085F9FB681B68FA681268926950
:1032100022F00C029A61FB681B68FA6812689169D7
:10322000BA6892680A439A615AE07B68042B1CD101
:10323000FB681868BB681968BB685A68BB68DB68BC
:1032400000F0D4F9FB681B68FA681268926922F4EE
:1032500040629A61FB681B68FA6812689169BA68F3
:10326000926812020A439A613AE07B68082B1BD1EC
:10327000FB681868BB681968BB685A68BB68DB687C
:1032800000F0F1F9FB681B68FA681268D26922F055
:103290000C02DA61FB681B68FA681268D169BA68C7
:1032A00092680A43DA611BE0FB681868BB6819681A
:1032B000BB685A68BB68DB6800F011FAFB681B68E2
:1032C000FA681268D26922F44062DA61FB681B680E
:1032D000FA681268D169BA68926812020A43DA6120
:1032E000FB68012283F83D20FB68002283F83C2024
:1032F000002318461037BD4680BD000080B485B05D
:1033000000AF786039600023FB603B680C2B31D83C
:1033100001A252F823F000BF4D33000875330008B6
:1033200075330008753300085733000875330008FB
:1033300075330008753300086133000875330008E1
:1033400075330008753300086B3300087B681B6811
:103350005B6BFB600FE07B681B689B6BFB600AE0AC
:103360007B681B68DB6BFB6005E07B681B681B6C84
:10337000FB6000E000BFFB6818461437BD465DF8EF
:10338000047B704780B483B000AF786000BF0C3717
:10339000BD465DF8047B704780B483B000AF7860B1
:1033A00000BF0C37BD465DF8047B704780B483B026
:1033B00000AF786000BF0C37BD465DF8047B7047F6
:1033C00080B483B000AF786000BF0C37BD465DF8B5
:1033D000047B704780B485B000AF786039607B684B
:1033E0001B68FB607B68424A934213D07B68B3F151
:1033F000804F0FD07B683F4A93420BD07B683E4A98
:10340000934207D07B683D4A934203D07B683C4A95
:10341000934208D1FB6823F07003FB603B685B6854
:10342000FA681343FB607B68314A93421FD07B6884
:10343000B3F1804F1BD07B682E4A934217D07B6834
:103440002D4A934213D07B682C4A93420FD07B685D
:103450002C4A93420BD07B682B4A934207D07B685F
:103460002A4A934203D07B68254A934208D1FB68DD
:1034700023F44073FB603B68DB68FA681343FB602E
:10348000FB6823F080023B685B691343FB607B6849
:10349000FA681A603B689A687B68DA623B681A6867
:1034A0007B689A627B68124A934213D07B68134A06
:1034B00093420FD07B68134A93420BD07B68124A29
:1034C000934207D07B68114A934203D07B680C4A31
:1034D000934203D13B681A697B681A637B680122B7
:1034E0005A6100BF1437BD465DF8047B704700BFCA
:1034F000002C01400004004000080040003401405E
:10350000005001400040014000440140004801409B
:1035100080B487B000AFF860B9607A603B60FB6848
:103520001B6A23F00102FB681A62FB689B697B61DE
:10353000FB681B6A3B61FB68264A934217D0FB6815
:10354000B3F1804F13D0FB68234A93420FD0FB683E
:10355000224A93420BD0FB68214A934207D0FB6872
:10356000204A934203D0FB681F4A934201D10123B2
:1035700000E00023002B08D07B6923F003037B616C
:103580007A697B6813437B6103E07B6943F0010345
:103590007B617B6923F0F0037B613B681B01DBB23D
:1035A0007A6913437B613B6923F00A033B61BB6883
:1035B00003F00A033A6913433B61FB687A699A6135
:1035C000FB683A691A6200BF1C37BD465DF8047B90
:1035D000704700BF002C014000040040000800407C
:1035E00000340140004001400050014080B487B0E9
:1035F00000AFF860B9607A603B60FB681B6A23F03B
:103600001002FB681A62FB689B697B61FB681B6A9E
:103610003B617B6923F440737B617B681B027A69A1
:1036200013437B617B6923F470437B613B681B031D
:103630009BB27A6913437B613B6923F0A0033B6132
:10364000BB681B0103F0A0033A6913433B61FB68AD
:103650007A699A61FB683A691A6200BF1C37BD46F5
:103660005DF8047B704780B487B000AFF860B96044
:103670007A603B60FB681B6A23F48072FB681A6205
:10368000FB68DB697B61FB681B6A3B617B6923F03C
:1036900003037B617A697B6813437B617B6923F059
:1036A000F0037B613B681B01DBB27A6913437B61EA
:1036B0003B6923F420633B61BB681B0203F4206376
:1036C0003A6913433B61FB687A69DA61FB683A69DE
:1036D0001A6200BF1C37BD465DF8047B704780B49A
:1036E00087B000AFF860B9607A603B60FB681B6A26
:1036F00023F48052FB681A62FB68DB697B61FB681C
:103700001B6A3B617B6923F440737B617B681B020E
:103710007A6913437B617B6923F470437B613B6867
:103720001B039BB27A6913437B613B6923F42043FB
:103730003B61BB681B0303F420433A6913433B61BD
:10374000FB687A69DA61FB683A691A6200BF1C3764
:10375000BD465DF8047B704780B487B000AFF86069
:10376000B9607A60BB6803F01F03012202FA03F319
:103770007B61FB681A6A7B69DB431A40FB681A624B
:10378000FB681A6ABB6803F01F03796801FA03F348
:103790001A43FB681A6200BF1C37BD465DF8047B04
:1037A0007047000080B485B000AF786039607B68F6
:1037B00093F83C30012B01D102236DE07B6801229C
:1037C00083F83C207B68022283F83D207B681B68DD
:1037D0005B68FB607B681B689B68BB607B681B68E1
:1037E000304A934209D07B681B682F4A934204D029
:1037F0007B681B682D4A934208D1FB6823F4700351
:10380000FB603B685B68FA681343FB60FB6823F06E
:103810007003FB603B681B68FA681343FB607B68BE
:103820001B68FA685A607B681B681E4A93421DD069
:103830007B681B68B3F1804F18D07B681B681C4AFB
:10384000934213D07B681B681A4A93420ED07B6860
:103850001B68154A934209D07B681B68164A93423D
:1038600004D07B681B68114A93420CD1BB6823F0DB
:103870008003BB603B689B68BA681343BB607B688E
:103880001B68BA689A607B68012283F83D207B68D8
:10389000002283F83C20002318461437BD465DF80B
:1038A000047B7047002C014000340140005001406F
:1038B00000040040000800400040014080B483B094
:1038C00000AF786000BF0C37BD465DF8047B7047E1
:1038D00080B483B000AF786000BF0C37BD465DF8A0
:1038E000047B704780B483B000AF786000BF0C37B2
:1038F000BD465DF8047B704780B582B000AF78604C
:103900007B68002B01D1012340E07B685B6F002BBB
:1039100006D17B68002283F870207868FDF73AFBB7
:103920007B6824225A677B681B687A681268126871
:1039300022F001021A60786800F0C0F80346012BFB
:1039400001D1012322E07B685B6A002B02D07868FA
:1039500000F0CEFA7B681B687A681268526822F41D
:1039600090425A607B681B687A681268926822F0FD
:103970002A029A607B681B687A681268126842F0B3
:1039800001021A60786800F055FB034618460837B4
:10399000BD4680BD80B58AB002AFF860B9603B60BB
:1039A0001346FB80FB685B6F202B40F08180BB6877
:1039B000002B02D0FB88002B01D1012379E0FB68AA
:1039C00093F87030012B01D1022372E0FB680122D1
:1039D00083F87020FB680022DA67FB6821225A67AF
:1039E000FDF7EEFB7861FB68FA88A3F85020FB68CE
:1039F000FA88A3F85220FB689B68B3F5805F08D172
:103A0000FB681B69002B04D10023FB61BB68BB6111
:103A100003E0BB68FB610023BB612DE03B680093C2
:103A20007B6900228021F86800F049FB0346002BE7
:103A300001D003233DE0FB69002B0BD1FB681B6821
:103A4000BA691288C2F3080292B21A85BB690233BE
:103A5000BB6108E0FB681B68FA69127892B21A85AC
:103A6000FB690133FB61FB68B3F852309BB2013B49
:103A70009AB2FB68A3F85220FB68B3F852309BB2AD
:103A8000002BCBD13B6800937B6900224021F86872
:103A900000F015FB0346002B01D0032309E0FB686F
:103AA00020225A67FB68002283F87020002300E080
:103AB000022318462037BD4680BD000080B588B07F
:103AC00000AF78600023BB610023FB757B689A68B8
:103AD0007B681B691A437B685B691A437B68DB69F7
:103AE00013433B617B681A687B681B681968AB4BA2
:103AF0000B4039690B4313607B681B687A68126856
:103B0000526822F440517A68D2680A435A607B684E
:103B10009B693B617B681B6A3A6913433B617B6825
:103B20001B687A681268926822F430613A690A4325
:103B30009A607B681B689A4A934221D1994B1B6B10
:103B400003F00303032B17D801A252F823F000BFA0
:103B5000613B00086D3B0008733B0008673B0008B1
:103B60000123FB77B2E00223FB77AFE00423FB776E
:103B7000ACE00823FB77A9E01023FB7700BFA5E0AA
:103B80007B681B68884A934223D1864B1B6B03F4E6
:103B90004033B3F5803F12D0B3F5803F02D8002BFD
:103BA00007D012E0B3F5003F0CD0B3F5403F03D08F
:103BB0000BE00023FB7789E00223FB7786E00423F8
:103BC000FB7783E00823FB7780E01023FB7700BFBF
:103BD0007CE07B681B68754A934223D1714B1B6B59
:103BE00003F44023B3F5802F12D0B3F5802F02D811
:103BF000002B07D012E0B3F5002F0CD0B3F5402F07
:103C000003D00BE00023FB7760E00223FB775DE04D
:103C10000423FB775AE00823FB7757E01023FB7758
:103C200000BF53E07B681B68614A934223D15D4B20
:103C30001B6B03F44013B3F5801F12D0B3F5801F44
:103C400002D8002B07D012E0B3F5001F0CD0B3F55B
:103C5000401F03D00BE00023FB7737E00223FB7704
:103C600034E00423FB7731E00823FB772EE01023B8
:103C7000FB7700BF2AE07B681B684E4A934223D142
:103C8000484B1B6B03F44003B3F5800F12D0B3F520
:103C9000800F02D8002B07D012E0B3F5000F0CD034
:103CA000B3F5400F03D00BE00023FB770EE00223B7
:103CB000FB770BE00423FB7708E00823FB7705E0A4
:103CC0001023FB7700BF01E01023FB777B68DB69E3
:103CD000B3F5004F40F09080FB7F082B6CD801A219
:103CE00052F823F0093D0008293D0008493D00082D
:103CF000B93D0008653D0008B93D0008B93D000820
:103D0000B93D0008853D0008FEF742FEF860FB68FB
:103D10005A007B685B685B081A447B685B68B2FB8F
:103D2000F3F39BB2BB614AE0FEF754FEF860FB6818
:103D30005A007B685B685B081A447B685B68B2FB6F
:103D4000F3F39BB2BB613AE07B685B685B0803F509
:103D5000740303F510537A685268B3FBF2F39BB215
:103D6000BB612CE0FEF79EFDF860FB685A007B68A3
:103D70005B685B081A447B685B68B2FBF3F39BB239
:103D8000BB611CE07B685B685B0803F580327B6885
:103D90005B68B2FBF3F39BB2BB6110E0F369FFEF2A
:103DA000003801400010024000440040004800403C
:103DB000004C0040005000400123FB7500BFBB6970
:103DC0000F2B16D9BB69B3F5803F12D2BB699BB2EA
:103DD00023F00F037B81BB695B089BB203F00703F1
:103DE0009AB27B8913437B817B681B687A89DA608E
:103DF00072E00123FB756FE0FB7F082B5BD801A20B
:103E000052F823F0293E0008473E0008653E0008AE
:103E1000B73E0008813E0008B73E0008B73E0008E4
:103E2000B73E00089F3E0008FEF7B2FDF8607B68D1
:103E30005B685A08FB681A447B685B68B2FBF3F363
:103E40009BB2BB613AE0FEF7C5FDF8607B685B683A
:103E50005A08FB681A447B685B68B2FBF3F39BB2B9
:103E6000BB612BE07B685B685B0803F5F40303F53B
:103E700090537A685268B3FBF2F39BB2BB611DE0CA
:103E8000FEF710FDF8607B685B685A08FB681A440F
:103E90007B685B68B2FBF3F39BB2BB610EE07B68AF
:103EA0005B685B0803F500427B685B68B2FBF3F379
:103EB0009BB2BB6102E00123FB7500BFBB690F2B06
:103EC00008D9BB69B3F5803F04D27B681B68BA6927
:103ED000DA6001E00123FB757B6800221A667B68CB
:103EE00000225A66FB7D18462037BD4680BD00BFC4
:103EF00080B483B000AF78607B685B6A03F0010335
:103F0000002B0AD07B681B687A681268526822F41A
:103F100000317A68926A0A435A607B685B6A03F0F0
:103F20000203002B0AD07B681B687A68126852680B
:103F300022F480317A68D26A0A435A607B685B6AED
:103F400003F00403002B0AD07B681B687A681268B0
:103F5000526822F480217A68126B0A435A607B68A7
:103F60005B6A03F00803002B0AD07B681B687A6841
:103F70001268526822F400417A68526B0A435A6010
:103F80007B685B6A03F01003002B0AD07B681B6818
:103F90007A681268926822F480517A68926B0A43B8
:103FA0009A607B685B6A03F02003002B0AD07B6871
:103FB0001B687A681268926822F400517A68D26BA2
:103FC0000A439A607B685B6A03F04003002B1AD0B7
:103FD0007B681B687A681268526822F480117A68DC
:103FE000126C0A435A607B681B6CB3F5801F0AD1C0
:103FF0007B681B687A681268526822F4C0017A688C
:10400000526C0A435A607B685B6A03F08003002BA2
:104010000AD07B681B687A681268526822F4002113
:104020007A68926C0A435A6000BF0C37BD465DF84F
:10403000047B704780B586B002AF78607B68002251
:10404000DA67FDF7BDF8F8607B681B681B6803F052
:104050000803082B0ED16FF07E430093FB6800220B
:104060004FF40011786800F02AF80346002B01D0C5
:10407000032320E07B681B681B6803F00403042B08
:104080000ED16FF07E430093FB6800224FF4800155
:10409000786800F014F80346002B01D003230AE0EF
:1040A0007B6820225A677B6820229A677B680022FF
:1040B00083F87020002318461037BD4680BD80B5B8
:1040C00084B000AFF860B9603B601346FB715DE0FF
:1040D000BB69B3F1FF3F59D0FDF772F802463B6868
:1040E000D21ABB699A4202D8BB69002B1BD1FB686C
:1040F0001B68FA681268126822F4D0721A60FB68B2
:104100001B68FA681268926822F001029A60FB68E4
:1041100020225A67FB6820229A67FB68002283F8F6
:104120007020032342E0FB681B681B6803F0040354
:10413000002B2BD0FB681B68DB6903F40063B3F52D
:10414000006F23D1FB681B684FF400621A62FB68A2
:104150001B68FA681268126822F4D0721A60FB6851
:104160001B68FA681268926822F001029A60FB6884
:1041700020225A67FB6820229A67FB682022DA67B0
:10418000FB68002283F8702003230FE0FB681B68A4
:10419000DA69BB681A40BB689A420CBF012300234E
:1041A000DBB21A46FB799A4292D0002318461037A8
:1041B000BD4680BDDFF834D0002103E00C4B5B58D6
:1041C000435004310B480C4B42189A42F6D30B4A29
:1041D00002E0002342F8043B094B9A42F9D3FCF772
:1041E0007FFF00F017F8FCF7FFFCFEE7000001205E
:1041F0004C4B0008000000207000002070000020E0
:10420000D4010020FEE70000014B1868704700BF92
:104210000C00002070B50D4E0D4CA41BA410002501
:10422000A54209D10B4E0C4C00F03EFCA41BA4107F
:104230000025A54205D170BD56F8253098470135B7
:10424000EEE756F8253098470135F2E7444B000871
:10425000444B0008444B0008484B00080244034606
:10426000934200D1704703F8011BF9E70EB400B583
:104270009CB04FF402711DABADF814100290069083
:104280006FF000410A48049107914FF6FF7153F80F
:10429000042BADF816100068019302A900F066F82F
:1042A000029B00221A701CB05DF804EB03B070474B
:1042B0000C0000202DE9F0478E689E4282460C4695
:1042C0009146984635D88A8912F4906F31D0256886
:1042D00009696F1A6569022305EB450595FBF3F53E
:1042E00008F101033B449D4238BF1D46530531D5BB
:1042F000294600F039FB064650B90C23CAF80030B5
:10430000A38943F04003A3814FF0FF30BDE8F0875D
:104310003A46216900F0B4FAA38923F4906343F08C
:104320008003A381266165613E44ED1B2660A56084
:104330004646464528BF464632464946206800F074
:10434000AAFAA3689B1BA36023681E442660002072
:10435000BDE8F0872A4600F065FB06460028E1D15B
:104360002169504600F0B2FAC7E700002DE9F04F8E
:104370009DB0804603938B891C060D4616460FD5CB
:104380000B696BB9402100F0EFFA2860286128B969
:104390000C23C8F800304FF0FF30C5E040236B61BC
:1043A0000023099320238DF8293030238DF82A30FB
:1043B0004FF0010B37463C4614F8013B002B3CD133
:1043C000B7EB060A0BD05346324629464046FFF764
:1043D00071FF013000F0A380099B534409933B789F
:1043E000002B00F09C8000234FF0FF3204930793D2
:1043F000059206938DF853301A9305222178504880
:10440000FBF7F6FE671C049BD8B9D90644BF2022EF
:104410008DF853201A0744BF2B228DF853202278A1
:104420002A2A16D0079A00210A20274601343B7811
:10443000303B092B51D9C9B111E0252BC0D02746FB
:10444000B9E73F4A801A0BFA00F0184304903C4643
:10445000D3E7039A111D12680391002A01DB07922A
:1044600004E0524243F00203079204933B782E2B60
:104470000ED17B782A2B07F1010132D1039B1A1D43
:104480001B680392002BB8BF4FF0FF330237059330
:104490002C4C397803222046FBF7AAFE38B1402382
:1044A000001B03FA00F0049B03430493013739789F
:1044B00025488DF8281006227E1CFBF799FE00285F
:1044C00035D0224BFBB9039B073323F00703083396
:1044D0000393099B4B4409936CE700FB02320121D3
:1044E000A3E70023059318460A240F4601313A78C2
:1044F000303A092A03D9002BCAD00590C8E704FB3B
:1045000000200123F1E703AB00932A46104B04A9D6
:104510004046AFF30080B0F1FF3F8146D9D1AB896F
:104520005B063FF538AF09981DB0BDE8F08F03ABCF
:1045300000932A46064B04A9404600F081F8EAE7BA
:10454000104B0008164B00081A4B00080000000032
:10455000B54200082DE9F04791461F468A680B696D
:10456000DDF820809342B8BF1346C9F8003091F8B7
:10457000432006460C4612B10133C9F800302368C7
:10458000990642BFD9F800300233C9F800302568D7
:1045900015F0060507D104F1190AE368D9F80020DF
:1045A0009B1A9D4229DB94F843302268003318BFE0
:1045B000012392062ED404F1430239463046C04707
:1045C000013021D02368E568D9F8002003F0060304
:1045D000042B08BFAD1AA36822690CBF25EAE57554
:1045E00000259342C4BF9B1AED184FF000091A34FE
:1045F0004D451BD10020BDE8F087012352463946C6
:104600003046C047013003D14FF0FF30BDE8F0879E
:104610000135C2E7E1185A1C302081F843002244DA
:1046200094F8451082F843100233C4E70123224670
:1046300039463046C0470130E6D009F10109D7E7D5
:104640002DE9F04317460A7E85B06E2A9846064645
:104650000C460C9B01F1430E00F0BC801AD8632A73
:104660002ED00AD8002A00F0C880582A00F08A808C
:1046700004F1420584F842202AE0642A01D0692A24
:10468000F6D121681A6811F0800F23D0111D19602E
:10469000136827E0732A00F0B48008D86F2A2AD064
:1046A000702AE5D10A6842F020020A6003E0752A08
:1046B00021D0782ADCD1782284F845206E4964E044
:1046C0001A6801F14205111D1960136884F842301F
:1046D0000123A3E011F0400F02F104011960D7D0CB
:1046E000B2F90030002B03DA2D225B4284F843201C
:1046F00062490A2217E02068196810F0800F03D081
:10470000081D18600B6806E010F0400F01F104006E
:104710001860F7D00B8859496F2A14BF0A22082263
:10472000002084F843006568A560002DC0F29C80DD
:10473000206820F004002060002B3FD1002D40F0C5
:1047400095807546082A0BD12368DA0708D52369B6
:1047500062689A42DEBF302305F8013C05F1FF355F
:10476000AEEB05032361CDF800803B4603AA21464A
:104770003046FFF7EFFE013055D14FF0FF3005B066
:10478000BDE8F08381F845203C492268186812F0A2
:10479000800F00F104051D6001D0036802E055069A
:1047A000FBD50388D00744BF42F0200222601BB92A
:1047B000226822F0200222601022B1E77546B3FB86
:1047C000F2F002FB1033CB5C05F8013D03460028F4
:1047D000F5D1B7E708681A68496910F0800F04D06E
:1047E000101D18601368196007E010F0400F02F107
:1047F000040018601368F6D0198000232361754601
:10480000B1E71A68111D1960156862680021284611
:10481000FBF7EEFC08B1401B606063682361002376
:1048200084F843309FE723692A4639463046C0471B
:104830000130A2D023689B0707D5002504F1190990
:10484000E368039A9B1A9D4205DBE068039B98424C
:10485000B8BF184693E701234A4639463046C04759
:1048600001308AD00135EBE7002BA7D10B7884F813
:10487000423004F1420565E7324B0008214B000845
:1048800010B5431E0A44914200D110BD11F8014BEE
:1048900003F8014FF7E7884210B501EB020303D894
:1048A000421E99420CD110BD9842F9D28118D21AF9
:1048B000D34200D110BD13F8014D01F8014DF7E7C7
:1048C00011F8014B02F8014FEBE7000038B505463F
:1048D000002945D051F8043C0C1F002BB8BFE41848
:1048E00000F0D6F81F4A1368104633B963601460AD
:1048F0002846BDE8384000F0CCB8A3420CD9216866
:104900006218934204BF1A685B68636004BF521860
:1049100022600460ECE713465A680AB1A242FAD951
:1049200019685818A0420BD12068014458188242D7
:104930001960DDD1106852685A6001441960D7E7E8
:1049400002D90C232B60D3E7206821188A4204BFC8
:1049500011685268626004BF091821605C60C7E793
:1049600038BD00BFA000002070B5CD1C25F00305A8
:1049700008350C2D38BF0C25002D064601DBA94259
:1049800003D90C233360002070BD00F081F8234A66
:104990001468214691B9224C23681BB9304600F0B7
:1049A00067F820602946304600F062F8431C26D1A3
:1049B0000C233360304600F06CF8E4E70B685B1BB7
:1049C0001AD40B2B0FD90B60CD50CC18304600F009
:1049D00060F804F10B00231D20F00700C31A1BD060
:1049E0005A42E25070BD8C420DBF63684B686360F1
:1049F000136018BF0C46E9E70C464968CAE7C41CB7
:104A000024F00304A04205D0211A304600F030F80B
:104A10000130CDD02560D9E770BD00BFA0000020D7
:104A2000A4000020F8B5074614460E4621B91146E9
:104A3000BDE8F840FFF798BF22B9FFF747FF2546CA
:104A40002846F8BD00F026F884420FD921463846A2
:104A5000FFF78AFF05460028F2D031462246FFF7CD
:104A60000FFF31463846FFF731FFE9E73546E7E704
:104A700038B5064C0023054608462360FCF704FBC6
:104A8000431C02D1236803B12B6038BDD001002044
:104A90007047704751F8040C0028A0F10400BCBF17
:104AA0000B58C01870470000F8B500BFF8BC08BC30
:104AB0009E467047F8B500BFF8BC08BC9E467047DC
:104AC00044697374616E63652028636D2920203DFD
:104AD00020252E31640D0A000000000000000000B7
:104AE0000102030406070809000000000102030494
:104AF00002030405060708090A0B0C0D0E0F10101F
:104B00000102030405060708090A0B0C0D0E0F101D
:104B1000232D302B2000686C4C00656667454647A6
:104B20000030313233343536373839414243444529
:104B30004600303132333435363738396162636498
:044B400065660000A6
:044B4400C50100089F
:044B4800A1010008BF
:104B4C0000127A001000000001000000100000208C
:104B5C000000000000000000000000000000000049
:104B6C000000000000000000000000000000000039
:104B7C000000000000000000000000000000000029
:104B8C000000000000000000000000000000000019
:104B9C000000000000000000000000000000000009
:104BAC0000000000000000000000000000000000F9
:04000005080041B5F9
:00000001FF
